{
  "contractName": "Counter",
  "abi": [
    {
      "inputs": [],
      "name": "number",
      "outputs": [
        {
          "internalType": "uint256",
          "name": "",
          "type": "uint256"
        }
      ],
      "stateMutability": "view",
      "type": "function",
      "constant": true
    },
    {
      "inputs": [],
      "name": "count",
      "outputs": [],
      "stateMutability": "nonpayable",
      "type": "function"
    },
    {
      "inputs": [],
      "name": "get",
      "outputs": [
        {
          "internalType": "uint256",
          "name": "",
          "type": "uint256"
        }
      ],
      "stateMutability": "view",
      "type": "function",
      "constant": true
    }
  ],
  "bytecode": "0x608060405234801561001057600080fd5b5061017f806100206000396000f3fe608060405234801561001057600080fd5b50600436106100415760003560e01c806306661abd146100465780636d4ce63c146100505780638381f58a1461006e575b600080fd5b61004e61008c565b005b6100586100a3565b60405161006591906100cb565b60405180910390f35b6100766100ac565b60405161008391906100cb565b60405180910390f35b600160005461009b9190610115565b600081905550565b60008054905090565b60005481565b6000819050919050565b6100c5816100b2565b82525050565b60006020820190506100e060008301846100bc565b92915050565b7f4e487b7100000000000000000000000000000000000000000000000000000000600052601160045260246000fd5b6000610120826100b2565b915061012b836100b2565b9250828201905080821115610143576101426100e6565b5b9291505056fea264697066735822122082a2f8b02fc2666b84a46b9daa6a2e043fe963415b24a4203b14a22d3ccab84364736f6c63430008110033",
  "immutableReferences": {},
  "source": "pragma solidity ^0.8.17;\n\ncontract Counter{\n    uint public number ;\n\n    function count() public {\n        number = number + 1;\n    }\n\n    function get() public view returns(uint){\n        return number;\n    }\n}",
  "sourcePath": "/Users/zsquirrel/Documents/ethereum/ethereum-develop/fundamental/truffleProject/contracts/Counter.sol",
  "compiler": {
    "name": "solc",
    "version": "0.8.17+commit.8df45f5f.Emscripten.clang"
  },
  "schemaVersion": "3.4.10",
  "updatedAt": "2022-10-03T04:28:39.247Z",
  "networkType": "ethereum",
  "devdoc": {
    "kind": "dev",
    "methods": {},
    "version": 1
  },
  "userdoc": {
    "kind": "user",
    "methods": {},
    "version": 1
  }
}